{
  "contractName": "Contacts",
  "abi": [
    {
      "inputs": [],
      "stateMutability": "nonpayable",
      "type": "constructor"
    },
    {
      "anonymous": false,
      "inputs": [
        {
          "indexed": false,
          "internalType": "uint256",
          "name": "surveyId",
          "type": "uint256"
        },
        {
          "indexed": false,
          "internalType": "string",
          "name": "question",
          "type": "string"
        },
        {
          "indexed": false,
          "internalType": "string[]",
          "name": "options",
          "type": "string[]"
        },
        {
          "indexed": false,
          "internalType": "string",
          "name": "description",
          "type": "string"
        },
        {
          "indexed": false,
          "internalType": "string",
          "name": "imgURL",
          "type": "string"
        }
      ],
      "name": "SurveyCreated",
      "type": "event"
    },
    {
      "anonymous": false,
      "inputs": [
        {
          "indexed": false,
          "internalType": "uint256",
          "name": "surveyId",
          "type": "uint256"
        }
      ],
      "name": "SurveyDeleted",
      "type": "event"
    },
    {
      "anonymous": false,
      "inputs": [],
      "name": "SurveysDeleted",
      "type": "event"
    },
    {
      "anonymous": false,
      "inputs": [
        {
          "indexed": false,
          "internalType": "uint256",
          "name": "surveyId",
          "type": "uint256"
        },
        {
          "indexed": false,
          "internalType": "string",
          "name": "option",
          "type": "string"
        },
        {
          "indexed": false,
          "internalType": "uint256",
          "name": "voteCount",
          "type": "uint256"
        }
      ],
      "name": "VoteCasted",
      "type": "event"
    },
    {
      "inputs": [],
      "name": "nextSurveyId",
      "outputs": [
        {
          "internalType": "uint256",
          "name": "",
          "type": "uint256"
        }
      ],
      "stateMutability": "view",
      "type": "function",
      "constant": true
    },
    {
      "inputs": [],
      "name": "owner",
      "outputs": [
        {
          "internalType": "address",
          "name": "",
          "type": "address"
        }
      ],
      "stateMutability": "view",
      "type": "function",
      "constant": true
    },
    {
      "inputs": [],
      "name": "surveyCount",
      "outputs": [
        {
          "internalType": "uint256",
          "name": "",
          "type": "uint256"
        }
      ],
      "stateMutability": "view",
      "type": "function",
      "constant": true
    },
    {
      "inputs": [
        {
          "internalType": "uint256",
          "name": "",
          "type": "uint256"
        }
      ],
      "name": "surveys",
      "outputs": [
        {
          "internalType": "uint256",
          "name": "id",
          "type": "uint256"
        },
        {
          "internalType": "string",
          "name": "question",
          "type": "string"
        },
        {
          "internalType": "address",
          "name": "creator",
          "type": "address"
        },
        {
          "internalType": "bool",
          "name": "isActive",
          "type": "bool"
        },
        {
          "internalType": "string",
          "name": "description",
          "type": "string"
        },
        {
          "internalType": "string",
          "name": "imgURL",
          "type": "string"
        }
      ],
      "stateMutability": "view",
      "type": "function",
      "constant": true
    },
    {
      "inputs": [
        {
          "internalType": "string",
          "name": "",
          "type": "string"
        },
        {
          "internalType": "uint256",
          "name": "",
          "type": "uint256"
        }
      ],
      "name": "surveysByTag",
      "outputs": [
        {
          "internalType": "uint256",
          "name": "",
          "type": "uint256"
        }
      ],
      "stateMutability": "view",
      "type": "function",
      "constant": true
    },
    {
      "inputs": [
        {
          "internalType": "string",
          "name": "_question",
          "type": "string"
        },
        {
          "internalType": "string[]",
          "name": "_options",
          "type": "string[]"
        },
        {
          "internalType": "string[]",
          "name": "_tags",
          "type": "string[]"
        },
        {
          "internalType": "string",
          "name": "_description",
          "type": "string"
        },
        {
          "internalType": "string",
          "name": "_imgURL",
          "type": "string"
        }
      ],
      "name": "createSurvey",
      "outputs": [],
      "stateMutability": "nonpayable",
      "type": "function"
    },
    {
      "inputs": [
        {
          "internalType": "uint256",
          "name": "_surveyId",
          "type": "uint256"
        }
      ],
      "name": "deleteSurvey",
      "outputs": [],
      "stateMutability": "nonpayable",
      "type": "function"
    },
    {
      "inputs": [
        {
          "internalType": "uint256",
          "name": "_surveyId",
          "type": "uint256"
        },
        {
          "internalType": "string",
          "name": "_option",
          "type": "string"
        }
      ],
      "name": "vote",
      "outputs": [],
      "stateMutability": "nonpayable",
      "type": "function"
    },
    {
      "inputs": [
        {
          "internalType": "uint256",
          "name": "limit",
          "type": "uint256"
        },
        {
          "internalType": "uint256",
          "name": "page",
          "type": "uint256"
        },
        {
          "internalType": "string[]",
          "name": "tags",
          "type": "string[]"
        }
      ],
      "name": "getSurveys",
      "outputs": [
        {
          "components": [
            {
              "internalType": "uint256",
              "name": "totalCount",
              "type": "uint256"
            },
            {
              "components": [
                {
                  "internalType": "uint256",
                  "name": "id",
                  "type": "uint256"
                },
                {
                  "internalType": "string",
                  "name": "question",
                  "type": "string"
                },
                {
                  "internalType": "string[]",
                  "name": "options",
                  "type": "string[]"
                },
                {
                  "internalType": "uint256[]",
                  "name": "voteCounts",
                  "type": "uint256[]"
                },
                {
                  "internalType": "string[]",
                  "name": "tags",
                  "type": "string[]"
                },
                {
                  "internalType": "bool",
                  "name": "isActive",
                  "type": "bool"
                },
                {
                  "internalType": "string",
                  "name": "description",
                  "type": "string"
                },
                {
                  "internalType": "string",
                  "name": "imgURL",
                  "type": "string"
                },
                {
                  "internalType": "address",
                  "name": "creator",
                  "type": "address"
                }
              ],
              "internalType": "struct Contacts.SurveySummary[]",
              "name": "surveys",
              "type": "tuple[]"
            }
          ],
          "internalType": "struct Contacts.SurveyResponse",
          "name": "",
          "type": "tuple"
        }
      ],
      "stateMutability": "view",
      "type": "function",
      "constant": true
    },
    {
      "inputs": [
        {
          "internalType": "uint256",
          "name": "_surveyId",
          "type": "uint256"
        }
      ],
      "name": "getResults",
      "outputs": [
        {
          "internalType": "string[]",
          "name": "",
          "type": "string[]"
        },
        {
          "internalType": "uint256[]",
          "name": "",
          "type": "uint256[]"
        }
      ],
      "stateMutability": "view",
      "type": "function",
      "constant": true
    },
    {
      "inputs": [
        {
          "internalType": "uint256",
          "name": "_surveyId",
          "type": "uint256"
        }
      ],
      "name": "getSurveyById",
      "outputs": [
        {
          "internalType": "uint256",
          "name": "",
          "type": "uint256"
        },
        {
          "internalType": "string",
          "name": "",
          "type": "string"
        },
        {
          "internalType": "string",
          "name": "",
          "type": "string"
        },
        {
          "internalType": "bool",
          "name": "",
          "type": "bool"
        },
        {
          "internalType": "string[]",
          "name": "",
          "type": "string[]"
        },
        {
          "internalType": "string[]",
          "name": "",
          "type": "string[]"
        },
        {
          "internalType": "uint256[]",
          "name": "",
          "type": "uint256[]"
        },
        {
          "internalType": "address",
          "name": "",
          "type": "address"
        },
        {
          "internalType": "string",
          "name": "",
          "type": "string"
        },
        {
          "internalType": "bool",
          "name": "",
          "type": "bool"
        },
        {
          "internalType": "uint256",
          "name": "",
          "type": "uint256"
        }
      ],
      "stateMutability": "view",
      "type": "function",
      "constant": true
    },
    {
      "inputs": [],
      "name": "deleteAllSurveys",
      "outputs": [],
      "stateMutability": "nonpayable",
      "type": "function"
    }
  ],
  "bytecode": "0x60806040523480156200001157600080fd5b50336000806101000a81548173ffffffffffffffffffffffffffffffffffffffff021916908373ffffffffffffffffffffffffffffffffffffffff16021790555060005b600881101562000587576000600467ffffffffffffffff811115620000a3577f4e487b7100000000000000000000000000000000000000000000000000000000600052604160045260246000fd5b604051908082528060200260200182016040528015620000d857816020015b6060815260200190600190039081620000c25790505b5090506040518060400160405280600881526020017f4f7074696f6e2031000000000000000000000000000000000000000000000000815250816000815181106200014c577f4e487b7100000000000000000000000000000000000000000000000000000000600052603260045260246000fd5b60200260200101819052506040518060400160405280600881526020017f4f7074696f6e203200000000000000000000000000000000000000000000000081525081600181518110620001c8577f4e487b7100000000000000000000000000000000000000000000000000000000600052603260045260246000fd5b60200260200101819052506040518060400160405280600881526020017f4f7074696f6e20330000000000000000000000000000000000000000000000008152508160028151811062000244577f4e487b7100000000000000000000000000000000000000000000000000000000600052603260045260246000fd5b60200260200101819052506040518060400160405280600881526020017f4f7074696f6e203400000000000000000000000000000000000000000000000081525081600381518110620002c0577f4e487b7100000000000000000000000000000000000000000000000000000000600052603260045260246000fd5b60200260200101819052506000600367ffffffffffffffff8111156200030f577f4e487b7100000000000000000000000000000000000000000000000000000000600052604160045260246000fd5b6040519080825280602002602001820160405280156200034457816020015b60608152602001906001900390816200032e5790505b5090506040518060400160405280600481526020017f746167310000000000000000000000000000000000000000000000000000000081525081600081518110620003b8577f4e487b7100000000000000000000000000000000000000000000000000000000600052603260045260246000fd5b60200260200101819052506040518060400160405280600481526020017f74616732000000000000000000000000000000000000000000000000000000008152508160018151811062000434577f4e487b7100000000000000000000000000000000000000000000000000000000600052603260045260246000fd5b60200260200101819052506040518060400160405280600481526020017f746167330000000000000000000000000000000000000000000000000000000081525081600281518110620004b0577f4e487b7100000000000000000000000000000000000000000000000000000000600052603260045260246000fd5b60200260200101819052506200056f6040518060400160405280600b81526020017f5175657374696f6e2e2e2e00000000000000000000000000000000000000000081525083836040518060400160405280600e81526020017f4465736372697074696f6e2e2e2e0000000000000000000000000000000000008152506040518060400160405280601981526020017f2e2e2f2e2e2f6173736574732f696d616765732f322e6a7067000000000000008152506200058e60201b60201c565b505080806200057e9062000f14565b91505062000055565b5062000fd1565b6000855111620005d5576040517f08c379a0000000000000000000000000000000000000000000000000000000008152600401620005cc9062000d70565b60405180910390fd5b6002845110158015620005ea5750600a845111155b6200062c576040517f08c379a0000000000000000000000000000000000000000000000000000000008152600401620006239062000d92565b60405180910390fd5b600060046000815480929190620006439062000f14565b919050559050806001600083815260200190815260200160002060000181905550856001600083815260200190815260200160002060010190805190602001906200069092919062000975565b5084600160008381526020019081526020016000206002019080519060200190620006bd92919062000a06565b50845167ffffffffffffffff81111562000700577f4e487b7100000000000000000000000000000000000000000000000000000000600052604160045260246000fd5b6040519080825280602002602001820160405280156200072f5781602001602082028036833780820191505090505b506001600083815260200190815260200160002060030190805190602001906200075b92919062000a6d565b50336001600083815260200190815260200160002060050160006101000a81548173ffffffffffffffffffffffffffffffffffffffff021916908373ffffffffffffffffffffffffffffffffffffffff16021790555083600160008381526020019081526020016000206004019080519060200190620007dd92919062000a06565b50600180600083815260200190815260200160002060050160146101000a81548160ff021916908315150217905550826001600083815260200190815260200160002060060190805190602001906200083892919062000975565b50816001600083815260200190815260200160002060070190805190602001906200086592919062000975565b5060005b845181101562000911576002858281518110620008af577f4e487b7100000000000000000000000000000000000000000000000000000000600052603260045260246000fd5b6020026020010151604051620008c6919062000d57565b90815260200160405180910390208290806001815401808255809150506001900390600052602060002001600090919091909150558080620009089062000f14565b91505062000869565b507fb4abbcf16f590ae67ff4cfa9b60094d636c30619ef20dcf652a7335f67f1529d81878786866040516200094b95949392919062000db4565b60405180910390a160036000815480929190620009689062000f14565b9190505550505050505050565b828054620009839062000ede565b90600052602060002090601f016020900481019282620009a75760008555620009f3565b82601f10620009c257805160ff1916838001178555620009f3565b82800160010185558215620009f3579182015b82811115620009f2578251825591602001919060010190620009d5565b5b50905062000a02919062000abf565b5090565b82805482825590600052602060002090810192821562000a5a579160200282015b8281111562000a5957825182908051906020019062000a4892919062000975565b509160200191906001019062000a27565b5b50905062000a69919062000ade565b5090565b82805482825590600052602060002090810192821562000aac579160200282015b8281111562000aab57825182559160200191906001019062000a8e565b5b50905062000abb919062000abf565b5090565b5b8082111562000ada57600081600090555060010162000ac0565b5090565b5b8082111562000b02576000818162000af8919062000b06565b5060010162000adf565b5090565b50805462000b149062000ede565b6000825580601f1062000b28575062000b49565b601f01602090049060005260206000209081019062000b48919062000abf565b5b50565b600062000b5a838362000be3565b905092915050565b600062000b6f8262000e3d565b62000b7b818562000e60565b93508360208202850162000b8f8562000e2d565b8060005b8581101562000bd1578484038952815162000baf858262000b4c565b945062000bbc8362000e53565b925060208a0199505060018101905062000b93565b50829750879550505050505092915050565b600062000bf08262000e48565b62000bfc818562000e71565b935062000c0e81856020860162000ea8565b62000c198162000fc0565b840191505092915050565b600062000c318262000e48565b62000c3d818562000e82565b935062000c4f81856020860162000ea8565b62000c5a8162000fc0565b840191505092915050565b600062000c728262000e48565b62000c7e818562000e93565b935062000c9081856020860162000ea8565b80840191505092915050565b600062000cab601a8362000e82565b91507f5175657374696f6e206d757374206e6f7420626520656d7074790000000000006000830152602082019050919050565b600062000ced60258362000e82565b91507f537572766579206d75737420686176652066726f6d203220746f203130206f7060008301527f74696f6e730000000000000000000000000000000000000000000000000000006020830152604082019050919050565b62000d518162000e9e565b82525050565b600062000d65828462000c65565b915081905092915050565b6000602082019050818103600083015262000d8b8162000c9c565b9050919050565b6000602082019050818103600083015262000dad8162000cde565b9050919050565b600060a08201905062000dcb600083018862000d46565b818103602083015262000ddf818762000c24565b9050818103604083015262000df5818662000b62565b9050818103606083015262000e0b818562000c24565b9050818103608083015262000e21818462000c24565b90509695505050505050565b6000819050602082019050919050565b600081519050919050565b600081519050919050565b6000602082019050919050565b600082825260208201905092915050565b600082825260208201905092915050565b600082825260208201905092915050565b600081905092915050565b6000819050919050565b60005b8381101562000ec857808201518184015260208101905062000eab565b8381111562000ed8576000848401525b50505050565b6000600282049050600182168062000ef757607f821691505b6020821081141562000f0e5762000f0d62000f91565b5b50919050565b600062000f218262000e9e565b91507fffffffffffffffffffffffffffffffffffffffffffffffffffffffffffffffff82141562000f575762000f5662000f62565b5b600182019050919050565b7f4e487b7100000000000000000000000000000000000000000000000000000000600052601160045260246000fd5b7f4e487b7100000000000000000000000000000000000000000000000000000000600052602260045260246000fd5b6000601f19601f8301169050919050565b6134498062000fe16000396000f3fe608060405234801561001057600080fd5b50600436106100b45760003560e01c80638da5cb5b116100715780638da5cb5b146101b7578063c0ac4ae4146101d5578063cb39b22e1461020f578063cff760f41461022b578063e804f4c014610249578063ef3e6b2e14610267576100b4565b806324108475146100b9578063567d4411146100d557806364fbc6471461010557806372d1a9901461012157806381a60c0d1461015157806386e68b9014610182575b600080fd5b6100d360048036038101906100ce919061239b565b610271565b005b6100ef60048036038101906100ea919061231e565b610606565b6040516100fc9190612df1565b60405180910390f35b61011f600480360381019061011a919061222f565b61064d565b005b61013b600480360381019061013691906123ef565b610a12565b6040516101489190612dcf565b60405180910390f35b61016b60048036038101906101669190612372565b610c39565b604051610179929190612c78565b60405180910390f35b61019c60048036038101906101979190612372565b610dce565b6040516101ae96959493929190612e0c565b60405180910390f35b6101bf610fcf565b6040516101cc9190612c5d565b60405180910390f35b6101ef60048036038101906101ea9190612372565b610ff3565b6040516102069b9a99989796959493929190612ef1565b60405180910390f35b61022960048036038101906102249190612372565b611508565b005b61023361164d565b6040516102409190612df1565b60405180910390f35b610251611653565b60405161025e9190612df1565b60405180910390f35b61026f611659565b005b60035482106102b5576040517f08c379a00000000000000000000000000000000000000000000000000000000081526004016102ac90612ccf565b60405180910390fd5b60008151116102f9576040517f08c379a00000000000000000000000000000000000000000000000000000000081526004016102f090612d2f565b60405180910390fd5b60006001600084815260200190815260200160002090508060050160149054906101000a900460ff16610361576040517f08c379a000000000000000000000000000000000000000000000000000000000815260040161035890612d6f565b60405180910390fd5b8060080160003373ffffffffffffffffffffffffffffffffffffffff1673ffffffffffffffffffffffffffffffffffffffff16815260200190815260200160002060009054906101000a900460ff16156103f0576040517f08c379a00000000000000000000000000000000000000000000000000000000081526004016103e790612cef565b60405180910390fd5b60005b81600201805490508110156105a6578280519060200120826002018281548110610446577f4e487b7100000000000000000000000000000000000000000000000000000000600052603260045260246000fd5b9060005260206000200160405161045d9190612c2f565b60405180910390201415610593578160030181815481106104a7577f4e487b7100000000000000000000000000000000000000000000000000000000600052603260045260246000fd5b9060005260206000200160008154809291906104c290613315565b91905055507fa63ca37190e619f865dc8e24d616d8d3c428554a172f39acf18ababcabcce0d58484846003018481548110610526577f4e487b7100000000000000000000000000000000000000000000000000000000600052603260045260246000fd5b906000526020600020015460405161054093929190612fc6565b60405180910390a1808260090160003373ffffffffffffffffffffffffffffffffffffffff1673ffffffffffffffffffffffffffffffffffffffff168152602001908152602001600020819055506105a6565b808061059e90613315565b9150506103f3565b5060018160080160003373ffffffffffffffffffffffffffffffffffffffff1673ffffffffffffffffffffffffffffffffffffffff16815260200190815260200160002060006101000a81548160ff021916908315150217905550505050565b600282805160208101820180518482526020830160208501208183528095505050505050818154811061063857600080fd5b90600052602060002001600091509150505481565b6000855111610691576040517f08c379a000000000000000000000000000000000000000000000000000000000815260040161068890612caf565b60405180910390fd5b60028451101580156106a55750600a845111155b6106e4576040517f08c379a00000000000000000000000000000000000000000000000000000000081526004016106db90612d8f565b60405180910390fd5b6000600460008154809291906106f990613315565b91905055905080600160008381526020019081526020016000206000018190555085600160008381526020019081526020016000206001019080519060200190610744929190611e6d565b508460016000838152602001908152602001600020600201908051906020019061076f929190611ef3565b50845167ffffffffffffffff8111156107b1577f4e487b7100000000000000000000000000000000000000000000000000000000600052604160045260246000fd5b6040519080825280602002602001820160405280156107df5781602001602082028036833780820191505090505b50600160008381526020019081526020016000206003019080519060200190610809929190611f53565b50336001600083815260200190815260200160002060050160006101000a81548173ffffffffffffffffffffffffffffffffffffffff021916908373ffffffffffffffffffffffffffffffffffffffff16021790555083600160008381526020019081526020016000206004019080519060200190610889929190611ef3565b50600180600083815260200190815260200160002060050160146101000a81548160ff021916908315150217905550826001600083815260200190815260200160002060060190805190602001906108e2929190611e6d565b508160016000838152602001908152602001600020600701908051906020019061090d929190611e6d565b5060005b84518110156109b2576002858281518110610955577f4e487b7100000000000000000000000000000000000000000000000000000000600052603260045260246000fd5b602002602001015160405161096a9190612c46565b908152602001604051809103902082908060018154018082558091505060019003906000526020600020016000909190919091505580806109aa90613315565b915050610911565b507fb4abbcf16f590ae67ff4cfa9b60094d636c30619ef20dcf652a7335f67f1529d81878786866040516109ea959493929190612e82565b60405180910390a160036000815480929190610a0590613315565b9190505550505050505050565b610a1a611fa0565b60008511610a5d576040517f08c379a0000000000000000000000000000000000000000000000000000000008152600401610a5490612d0f565b60405180910390fd5b610a65611fa0565b6003548160000181815250508567ffffffffffffffff811115610ab1577f4e487b7100000000000000000000000000000000000000000000000000000000600052604160045260246000fd5b604051908082528060200260200182016040528015610aea57816020015b610ad7611fba565b815260200190600190039081610acf5790505b50816020018190525060008087600188610b049190613210565b610b0e91906131b6565b90505b60035481108015610b2157508782105b15610c15576000868690501480610b5f5750610b5e60016000838152602001908152602001600020600401878790610b59919061328c565b6117ff565b5b8015610b8b57506001600082815260200190815260200160002060050160149054906101000a900460ff165b15610c0257610bab60016000838152602001908152602001600020611903565b83602001518381518110610be8577f4e487b7100000000000000000000000000000000000000000000000000000000600052603260045260246000fd5b60200260200101819052508180610bfe90613315565b9250505b8080610c0d90613315565b915050610b11565b610c23836020015183611d3f565b8360200181905250829350505050949350505050565b6060806003548310610c80576040517f08c379a0000000000000000000000000000000000000000000000000000000008152600401610c7790612ccf565b60405180910390fd5b6000600160008581526020019081526020016000209050806002018160030181805480602002602001604051908101604052809291908181526020016000905b82821015610d6c578382906000526020600020018054610cdf906132e3565b80601f0160208091040260200160405190810160405280929190818152602001828054610d0b906132e3565b8015610d585780601f10610d2d57610100808354040283529160200191610d58565b820191906000526020600020905b815481529060010190602001808311610d3b57829003601f168201915b505050505081526020019060010190610cc0565b50505050915080805480602002602001604051908101604052809291908181526020018280548015610dbd57602002820191906000526020600020905b815481526020019060010190808311610da9575b505050505090509250925050915091565b6001602052806000526040600020600091509050806000015490806001018054610df7906132e3565b80601f0160208091040260200160405190810160405280929190818152602001828054610e23906132e3565b8015610e705780601f10610e4557610100808354040283529160200191610e70565b820191906000526020600020905b815481529060010190602001808311610e5357829003601f168201915b5050505050908060050160009054906101000a900473ffffffffffffffffffffffffffffffffffffffff16908060050160149054906101000a900460ff1690806006018054610ebe906132e3565b80601f0160208091040260200160405190810160405280929190818152602001828054610eea906132e3565b8015610f375780601f10610f0c57610100808354040283529160200191610f37565b820191906000526020600020905b815481529060010190602001808311610f1a57829003601f168201915b505050505090806007018054610f4c906132e3565b80601f0160208091040260200160405190810160405280929190818152602001828054610f78906132e3565b8015610fc55780601f10610f9a57610100808354040283529160200191610fc5565b820191906000526020600020905b815481529060010190602001808311610fa857829003601f168201915b5050505050905086565b60008054906101000a900473ffffffffffffffffffffffffffffffffffffffff1681565b600060608060006060806060600060606000806003548c1061104a576040517f08c379a000000000000000000000000000000000000000000000000000000000815260040161104190612ccf565b60405180910390fd5b6000600160008e81526020019081526020016000209050806000015481600101826006018360050160149054906101000a900460ff168460020185600401866003018760050160009054906101000a900473ffffffffffffffffffffffffffffffffffffffff16886007018960080160003373ffffffffffffffffffffffffffffffffffffffff1673ffffffffffffffffffffffffffffffffffffffff16815260200190815260200160002060009054906101000a900460ff168a60090160003373ffffffffffffffffffffffffffffffffffffffff1673ffffffffffffffffffffffffffffffffffffffff16815260200190815260200160002054898054611152906132e3565b80601f016020809104026020016040519081016040528092919081815260200182805461117e906132e3565b80156111cb5780601f106111a0576101008083540402835291602001916111cb565b820191906000526020600020905b8154815290600101906020018083116111ae57829003601f168201915b505050505099508880546111de906132e3565b80601f016020809104026020016040519081016040528092919081815260200182805461120a906132e3565b80156112575780601f1061122c57610100808354040283529160200191611257565b820191906000526020600020905b81548152906001019060200180831161123a57829003601f168201915b5050505050985086805480602002602001604051908101604052809291908181526020016000905b8282101561132b57838290600052602060002001805461129e906132e3565b80601f01602080910402602001604051908101604052809291908181526020018280546112ca906132e3565b80156113175780601f106112ec57610100808354040283529160200191611317565b820191906000526020600020905b8154815290600101906020018083116112fa57829003601f168201915b50505050508152602001906001019061127f565b50505050965085805480602002602001604051908101604052809291908181526020016000905b828210156113fe578382906000526020600020018054611371906132e3565b80601f016020809104026020016040519081016040528092919081815260200182805461139d906132e3565b80156113ea5780601f106113bf576101008083540402835291602001916113ea565b820191906000526020600020905b8154815290600101906020018083116113cd57829003601f168201915b505050505081526020019060010190611352565b5050505095508480548060200260200160405190810160405280929190818152602001828054801561144f57602002820191906000526020600020905b81548152602001906001019080831161143b575b50505050509450828054611462906132e3565b80601f016020809104026020016040519081016040528092919081815260200182805461148e906132e3565b80156114db5780601f106114b0576101008083540402835291602001916114db565b820191906000526020600020905b8154815290600101906020018083116114be57829003601f168201915b505050505092509b509b509b509b509b509b509b509b509b509b509b505091939597999b90929496989a50565b600354811061154c576040517f08c379a000000000000000000000000000000000000000000000000000000000815260040161154390612ccf565b60405180910390fd5b60006001600083815260200190815260200160002090503373ffffffffffffffffffffffffffffffffffffffff168160050160009054906101000a900473ffffffffffffffffffffffffffffffffffffffff1673ffffffffffffffffffffffffffffffffffffffff16146115f5576040517f08c379a00000000000000000000000000000000000000000000000000000000081526004016115ec90612d4f565b60405180910390fd5b60008160050160146101000a81548160ff0219169083151502179055507f5f39875257ec69ec99add8797273757dec9c2eb36b3ef14fc782991d8e9fddc6826040516116419190612df1565b60405180910390a15050565b60045481565b60035481565b60008054906101000a900473ffffffffffffffffffffffffffffffffffffffff1673ffffffffffffffffffffffffffffffffffffffff163373ffffffffffffffffffffffffffffffffffffffff16146116e7576040517f08c379a00000000000000000000000000000000000000000000000000000000081526004016116de90612daf565b60405180910390fd5b60005b6003548110156117c05760016000828152602001908152602001600020600080820160009055600182016000611720919061201e565b600282016000611730919061205e565b600382016000611740919061207f565b600482016000611750919061205e565b6005820160006101000a81549073ffffffffffffffffffffffffffffffffffffffff02191690556005820160146101000a81549060ff021916905560068201600061179b919061201e565b6007820160006117ab919061201e565b505080806117b890613315565b9150506116ea565b50600060038190555060006004819055507f813da9a045d8a3726715e79b805d0677f4490fbc81903e968e362c0ae78bb0c860405160405180910390a1565b600080600090505b83805490508110156118f75760005b83518110156118e357838181518110611858577f4e487b7100000000000000000000000000000000000000000000000000000000600052603260045260246000fd5b6020026020010151805190602001208583815481106118a0577f4e487b7100000000000000000000000000000000000000000000000000000000600052603260045260246000fd5b906000526020600020016040516118b79190612c2f565b604051809103902014156118d0576001925050506118fd565b80806118db90613315565b915050611816565b5080806118ef90613315565b915050611807565b50600090505b92915050565b61190b611fba565b60405180610120016040528083600001548152602001836001018054611930906132e3565b80601f016020809104026020016040519081016040528092919081815260200182805461195c906132e3565b80156119a95780601f1061197e576101008083540402835291602001916119a9565b820191906000526020600020905b81548152906001019060200180831161198c57829003601f168201915b5050505050815260200183600201805480602002602001604051908101604052809291908181526020016000905b82821015611a835783829060005260206000200180546119f6906132e3565b80601f0160208091040260200160405190810160405280929190818152602001828054611a22906132e3565b8015611a6f5780601f10611a4457610100808354040283529160200191611a6f565b820191906000526020600020905b815481529060010190602001808311611a5257829003601f168201915b5050505050815260200190600101906119d7565b50505050815260200183600301805480602002602001604051908101604052809291908181526020018280548015611ada57602002820191906000526020600020905b815481526020019060010190808311611ac6575b5050505050815260200183600401805480602002602001604051908101604052809291908181526020016000905b82821015611bb4578382906000526020600020018054611b27906132e3565b80601f0160208091040260200160405190810160405280929190818152602001828054611b53906132e3565b8015611ba05780601f10611b7557610100808354040283529160200191611ba0565b820191906000526020600020905b815481529060010190602001808311611b8357829003601f168201915b505050505081526020019060010190611b08565b5050505081526020018360050160149054906101000a900460ff1615158152602001836006018054611be5906132e3565b80601f0160208091040260200160405190810160405280929190818152602001828054611c11906132e3565b8015611c5e5780601f10611c3357610100808354040283529160200191611c5e565b820191906000526020600020905b815481529060010190602001808311611c4157829003601f168201915b50505050508152602001836007018054611c77906132e3565b80601f0160208091040260200160405190810160405280929190818152602001828054611ca3906132e3565b8015611cf05780601f10611cc557610100808354040283529160200191611cf0565b820191906000526020600020905b815481529060010190602001808311611cd357829003601f168201915b505050505081526020018360050160009054906101000a900473ffffffffffffffffffffffffffffffffffffffff1673ffffffffffffffffffffffffffffffffffffffff168152509050919050565b606060008267ffffffffffffffff811115611d83577f4e487b7100000000000000000000000000000000000000000000000000000000600052604160045260246000fd5b604051908082528060200260200182016040528015611dbc57816020015b611da9611fba565b815260200190600190039081611da15790505b50905060005b83811015611e6257848181518110611e03577f4e487b7100000000000000000000000000000000000000000000000000000000600052603260045260246000fd5b6020026020010151828281518110611e44577f4e487b7100000000000000000000000000000000000000000000000000000000600052603260045260246000fd5b60200260200101819052508080611e5a90613315565b915050611dc2565b508091505092915050565b828054611e79906132e3565b90600052602060002090601f016020900481019282611e9b5760008555611ee2565b82601f10611eb457805160ff1916838001178555611ee2565b82800160010185558215611ee2579182015b82811115611ee1578251825591602001919060010190611ec6565b5b509050611eef91906120a0565b5090565b828054828255906000526020600020908101928215611f42579160200282015b82811115611f41578251829080519060200190611f31929190611e6d565b5091602001919060010190611f13565b5b509050611f4f91906120bd565b5090565b828054828255906000526020600020908101928215611f8f579160200282015b82811115611f8e578251825591602001919060010190611f73565b5b509050611f9c91906120a0565b5090565b604051806040016040528060008152602001606081525090565b60405180610120016040528060008152602001606081526020016060815260200160608152602001606081526020016000151581526020016060815260200160608152602001600073ffffffffffffffffffffffffffffffffffffffff1681525090565b50805461202a906132e3565b6000825580601f1061203c575061205b565b601f01602090049060005260206000209081019061205a91906120a0565b5b50565b508054600082559060005260206000209081019061207c91906120bd565b50565b508054600082559060005260206000209081019061209d91906120a0565b50565b5b808211156120b95760008160009055506001016120a1565b5090565b5b808211156120dd57600081816120d4919061201e565b506001016120be565b5090565b60006120f46120ef84613035565b613004565b9050808382526020820190508260005b85811015612134578135850161211a88826121f0565b845260208401935060208301925050600181019050612104565b5050509392505050565b600061215161214c84613061565b613004565b90508281526020810184848401111561216957600080fd5b6121748482856132a1565b509392505050565b60008083601f84011261218e57600080fd5b8235905067ffffffffffffffff8111156121a757600080fd5b6020830191508360208202830111156121bf57600080fd5b9250929050565b600082601f8301126121d757600080fd5b81356121e78482602086016120e1565b91505092915050565b600082601f83011261220157600080fd5b813561221184826020860161213e565b91505092915050565b600081359050612229816133fc565b92915050565b600080600080600060a0868803121561224757600080fd5b600086013567ffffffffffffffff81111561226157600080fd5b61226d888289016121f0565b955050602086013567ffffffffffffffff81111561228a57600080fd5b612296888289016121c6565b945050604086013567ffffffffffffffff8111156122b357600080fd5b6122bf888289016121c6565b935050606086013567ffffffffffffffff8111156122dc57600080fd5b6122e8888289016121f0565b925050608086013567ffffffffffffffff81111561230557600080fd5b612311888289016121f0565b9150509295509295909350565b6000806040838503121561233157600080fd5b600083013567ffffffffffffffff81111561234b57600080fd5b612357858286016121f0565b92505060206123688582860161221a565b9150509250929050565b60006020828403121561238457600080fd5b60006123928482850161221a565b91505092915050565b600080604083850312156123ae57600080fd5b60006123bc8582860161221a565b925050602083013567ffffffffffffffff8111156123d957600080fd5b6123e5858286016121f0565b9150509250929050565b6000806000806060858703121561240557600080fd5b60006124138782880161221a565b94505060206124248782880161221a565b935050604085013567ffffffffffffffff81111561244157600080fd5b61244d8782880161217c565b925092505092959194509250565b60006124678383612771565b905092915050565b600061247b8383612b29565b905092915050565b600061248f8383612c11565b60208301905092915050565b6124a481613244565b82525050565b6124b381613244565b82525050565b60006124c4826130d6565b6124ce8185613129565b9350836020820285016124e085613091565b8060005b8581101561251c57848403895281516124fd858261245b565b945061250883613102565b925060208a019950506001810190506124e4565b50829750879550505050505092915050565b6000612539826130d6565b612543818561313a565b93508360208202850161255585613091565b8060005b858110156125915784840389528151612572858261245b565b945061257d83613102565b925060208a01995050600181019050612559565b50829750879550505050505092915050565b60006125ae826130e1565b6125b8818561314b565b9350836020820285016125ca856130a1565b8060005b8581101561260657848403895281516125e7858261246f565b94506125f28361310f565b925060208a019950506001810190506125ce565b50829750879550505050505092915050565b6000612623826130ec565b61262d818561315c565b9350612638836130b1565b8060005b838110156126695781516126508882612483565b975061265b8361311c565b92505060018101905061263c565b5085935050505092915050565b6000612681826130ec565b61268b818561316d565b9350612696836130b1565b8060005b838110156126c75781516126ae8882612483565b97506126b98361311c565b92505060018101905061269a565b5085935050505092915050565b6126dd81613256565b82525050565b6126ec81613256565b82525050565b600081546126ff816132e3565b612709818661317e565b94506001821660008114612724576001811461273557612768565b60ff19831686528186019350612768565b61273e856130c1565b60005b8381101561276057815481890152600182019150602081019050612741565b838801955050505b50505092915050565b600061277c826130f7565b6127868185613189565b93506127968185602086016132b0565b61279f816133eb565b840191505092915050565b60006127b5826130f7565b6127bf818561319a565b93506127cf8185602086016132b0565b6127d8816133eb565b840191505092915050565b60006127ee826130f7565b6127f881856131ab565b93506128088185602086016132b0565b80840191505092915050565b6000612821601a8361319a565b91507f5175657374696f6e206d757374206e6f7420626520656d7074790000000000006000830152602082019050919050565b600061286160108361319a565b91507f496e76616c6964207375727665794964000000000000000000000000000000006000830152602082019050919050565b60006128a160258361319a565b91507f596f75206861766520616c726561647920766f74656420696e2074686973207360008301527f75727665790000000000000000000000000000000000000000000000000000006020830152604082019050919050565b6000612907601c8361319a565b91507f4c696d6974206d7573742062652067726561746572207468616e2030000000006000830152602082019050919050565b600061294760188361319a565b91507f4f7074696f6e206d757374206e6f7420626520656d70747900000000000000006000830152602082019050919050565b6000612987602d8361319a565b91507f4f6e6c7920746865207375727665792063726561746f722063616e2064656c6560008301527f74652074686520737572766579000000000000000000000000000000000000006020830152604082019050919050565b60006129ed60188361319a565b91507f54686520737572766579206973206e6f742061637469766500000000000000006000830152602082019050919050565b6000612a2d60258361319a565b91507f537572766579206d75737420686176652066726f6d203220746f203130206f7060008301527f74696f6e730000000000000000000000000000000000000000000000000000006020830152604082019050919050565b6000612a93602e8361319a565b91507f4f6e6c792074686520636f6e7472616374206f776e65722063616e2064656c6560008301527f746520616c6c20737572766579730000000000000000000000000000000000006020830152604082019050919050565b6000604083016000830151612b046000860182612c11565b5060208301518482036020860152612b1c82826125a3565b9150508091505092915050565b600061012083016000830151612b426000860182612c11565b5060208301518482036020860152612b5a8282612771565b91505060408301518482036040860152612b7482826124b9565b91505060608301518482036060860152612b8e8282612618565b91505060808301518482036080860152612ba882826124b9565b91505060a0830151612bbd60a08601826126d4565b5060c083015184820360c0860152612bd58282612771565b91505060e083015184820360e0860152612bef8282612771565b915050610100830151612c0661010086018261249b565b508091505092915050565b612c1a81613282565b82525050565b612c2981613282565b82525050565b6000612c3b82846126f2565b915081905092915050565b6000612c5282846127e3565b915081905092915050565b6000602082019050612c7260008301846124aa565b92915050565b60006040820190508181036000830152612c92818561252e565b90508181036020830152612ca68184612676565b90509392505050565b60006020820190508181036000830152612cc881612814565b9050919050565b60006020820190508181036000830152612ce881612854565b9050919050565b60006020820190508181036000830152612d0881612894565b9050919050565b60006020820190508181036000830152612d28816128fa565b9050919050565b60006020820190508181036000830152612d488161293a565b9050919050565b60006020820190508181036000830152612d688161297a565b9050919050565b60006020820190508181036000830152612d88816129e0565b9050919050565b60006020820190508181036000830152612da881612a20565b9050919050565b60006020820190508181036000830152612dc881612a86565b9050919050565b60006020820190508181036000830152612de98184612aec565b905092915050565b6000602082019050612e066000830184612c20565b92915050565b600060c082019050612e216000830189612c20565b8181036020830152612e3381886127aa565b9050612e4260408301876124aa565b612e4f60608301866126e3565b8181036080830152612e6181856127aa565b905081810360a0830152612e7581846127aa565b9050979650505050505050565b600060a082019050612e976000830188612c20565b8181036020830152612ea981876127aa565b90508181036040830152612ebd818661252e565b90508181036060830152612ed181856127aa565b90508181036080830152612ee581846127aa565b90509695505050505050565b600061016082019050612f07600083018e612c20565b8181036020830152612f19818d6127aa565b90508181036040830152612f2d818c6127aa565b9050612f3c606083018b6126e3565b8181036080830152612f4e818a61252e565b905081810360a0830152612f62818961252e565b905081810360c0830152612f768188612676565b9050612f8560e08301876124aa565b818103610100830152612f9881866127aa565b9050612fa86101208301856126e3565b612fb6610140830184612c20565b9c9b505050505050505050505050565b6000606082019050612fdb6000830186612c20565b8181036020830152612fed81856127aa565b9050612ffc6040830184612c20565b949350505050565b6000604051905081810181811067ffffffffffffffff8211171561302b5761302a6133bc565b5b8060405250919050565b600067ffffffffffffffff8211156130505761304f6133bc565b5b602082029050602081019050919050565b600067ffffffffffffffff82111561307c5761307b6133bc565b5b601f19601f8301169050602081019050919050565b6000819050602082019050919050565b6000819050602082019050919050565b6000819050602082019050919050565b60008190508160005260206000209050919050565b600081519050919050565b600081519050919050565b600081519050919050565b600081519050919050565b6000602082019050919050565b6000602082019050919050565b6000602082019050919050565b600082825260208201905092915050565b600082825260208201905092915050565b600082825260208201905092915050565b600082825260208201905092915050565b600082825260208201905092915050565b600081905092915050565b600082825260208201905092915050565b600082825260208201905092915050565b600081905092915050565b60006131c182613282565b91506131cc83613282565b9250817fffffffffffffffffffffffffffffffffffffffffffffffffffffffffffffffff04831182151516156132055761320461335e565b5b828202905092915050565b600061321b82613282565b915061322683613282565b9250828210156132395761323861335e565b5b828203905092915050565b600061324f82613262565b9050919050565b60008115159050919050565b600073ffffffffffffffffffffffffffffffffffffffff82169050919050565b6000819050919050565b60006132993684846120e1565b905092915050565b82818337600083830152505050565b60005b838110156132ce5780820151818401526020810190506132b3565b838111156132dd576000848401525b50505050565b600060028204905060018216806132fb57607f821691505b6020821081141561330f5761330e61338d565b5b50919050565b600061332082613282565b91507fffffffffffffffffffffffffffffffffffffffffffffffffffffffffffffffff8214156133535761335261335e565b5b600182019050919050565b7f4e487b7100000000000000000000000000000000000000000000000000000000600052601160045260246000fd5b7f4e487b7100000000000000000000000000000000000000000000000000000000600052602260045260246000fd5b7f4e487b7100000000000000000000000000000000000000000000000000000000600052604160045260246000fd5b6000601f19601f8301169050919050565b61340581613282565b811461341057600080fd5b5056fea26469706673582212200e2fb725d4fd00cd065d8b9776ee7abe3b8a70e1e162fe506d5cf7f07a1a077664736f6c63430008000033",
  "immutableReferences": {},
  "source": "pragma solidity ^0.8.0;\r\n\r\npragma solidity ^0.8.0;\r\n\r\ncontract Contacts {\r\n    address public owner;\r\n\r\n    struct Survey {\r\n        uint id;\r\n        string question;\r\n        string[] options;\r\n        uint[] voteCounts;\r\n        string[] tags;\r\n        address creator;\r\n        bool isActive;\r\n        string description;\r\n        string imgURL;\r\n        mapping(address => bool) hasVoted;\r\n        mapping(address => uint) selectedOption;\r\n    }\r\n\r\n    struct SurveyResponse {\r\n        uint totalCount;\r\n        SurveySummary[] surveys;\r\n    }\r\n\r\n    struct SurveySummary {\r\n        uint id;\r\n        string question;\r\n        string[] options;\r\n        uint[] voteCounts;\r\n        string[] tags;\r\n        bool isActive;\r\n        string description;\r\n        string imgURL;\r\n        address creator;\r\n    }\r\n\r\n    mapping(uint => Survey) public surveys;\r\n    mapping(string => uint[]) public surveysByTag;\r\n    uint public surveyCount;\r\n    uint public nextSurveyId;\r\n\r\n    event SurveyCreated(uint surveyId, string question, string[] options, string description, string imgURL);\r\n    event SurveyDeleted(uint surveyId);\r\n    event VoteCasted(uint surveyId, string option, uint voteCount);\r\n    event SurveysDeleted();\r\n\r\n    constructor() {\r\n        owner = msg.sender;\r\n\r\n        for (uint i = 0; i < 8; i++) {\r\n            string[] memory options = new string[](4);\r\n            options[0] = \"Option 1\";\r\n            options[1] = \"Option 2\";\r\n            options[2] = \"Option 3\";\r\n            options[3] = \"Option 4\";\r\n            string[] memory tags = new string[](3);\r\n            tags[0] = \"tag1\";\r\n            tags[1] = \"tag2\";\r\n            tags[2] = \"tag3\";\r\n            createSurvey(\r\n                \"Question...\",\r\n                options,\r\n                tags,\r\n                \"Description...\",\r\n                \"../../assets/images/2.jpg\");\r\n        }\r\n    }\r\n\r\n    function createSurvey(string memory _question, string[] memory _options, string[] memory _tags,\r\n        string memory _description, string memory _imgURL) public {\r\n        require(bytes(_question).length > 0, \"Question must not be empty\");\r\n        require(_options.length >= 2 && _options.length <= 10, \"Survey must have from 2 to 10 options\");\r\n\r\n        uint surveyId = nextSurveyId++;\r\n        surveys[surveyId].id = surveyId;\r\n        surveys[surveyId].question = _question;\r\n        surveys[surveyId].options = _options;\r\n        surveys[surveyId].voteCounts = new uint[](_options.length);\r\n        surveys[surveyId].creator = msg.sender;\r\n        surveys[surveyId].tags = _tags;\r\n        surveys[surveyId].isActive = true;\r\n        surveys[surveyId].description = _description;\r\n        surveys[surveyId].imgURL = _imgURL;\r\n\r\n        for (uint i = 0; i < _tags.length; i++) {\r\n            surveysByTag[_tags[i]].push(surveyId);\r\n        }\r\n\r\n        emit SurveyCreated(surveyId, _question, _options, _description, _imgURL);\r\n\r\n        surveyCount++;\r\n    }\r\n\r\n    function deleteSurvey(uint _surveyId) public {\r\n        require(_surveyId < surveyCount, \"Invalid surveyId\");\r\n\r\n        Survey storage survey = surveys[_surveyId];\r\n\r\n        require(survey.creator == msg.sender, \"Only the survey creator can delete the survey\");\r\n\r\n        survey.isActive = false;\r\n\r\n        emit SurveyDeleted(_surveyId);\r\n    }\r\n\r\n    function vote(uint _surveyId, string memory _option) public {\r\n        require(_surveyId < surveyCount, \"Invalid surveyId\");\r\n        require(bytes(_option).length > 0, \"Option must not be empty\");\r\n\r\n        Survey storage survey = surveys[_surveyId];\r\n\r\n        require(survey.isActive, \"The survey is not active\");\r\n        require(!survey.hasVoted[msg.sender], \"You have already voted in this survey\");\r\n\r\n        for (uint i = 0; i < survey.options.length; i++) {\r\n            if (keccak256(bytes(survey.options[i])) == keccak256(bytes(_option))) {\r\n                survey.voteCounts[i]++;\r\n                emit VoteCasted(_surveyId, _option, survey.voteCounts[i]);\r\n                survey.selectedOption[msg.sender] = i;\r\n                break;\r\n            }\r\n        }\r\n\r\n        survey.hasVoted[msg.sender] = true;\r\n    }\r\n\r\n    function getSurveys(uint limit, uint page, string[] calldata tags) public view returns (SurveyResponse memory) {\r\n        require(limit > 0, \"Limit must be greater than 0\");\r\n\r\n        SurveyResponse memory response;\r\n\r\n        response.totalCount = surveyCount;\r\n        response.surveys = new SurveySummary[](limit);\r\n\r\n        uint count = 0;\r\n        uint i = (page - 1) * limit;\r\n\r\n        while(i < surveyCount && count < limit){\r\n            if ((tags.length == 0 || containsAnyTag(surveys[i].tags, tags)) && surveys[i].isActive){\r\n                response.surveys[count] = toSummary(surveys[i]);\r\n                count++;\r\n            }\r\n            i++;\r\n        }\r\n\r\n        response.surveys = trim(response.surveys, count);\r\n\r\n        return response;\r\n    }\r\n\r\n    function toSummary(Survey storage survey) internal view returns (SurveySummary memory) {\r\n        return SurveySummary({\r\n        id: survey.id,\r\n        question: survey.question,\r\n        options: survey.options,\r\n        voteCounts: survey.voteCounts,\r\n        tags: survey.tags,\r\n        isActive: survey.isActive,\r\n        description: survey.description,\r\n        imgURL: survey.imgURL,\r\n        creator: survey.creator\r\n        });\r\n    }\r\n\r\n    function containsAnyTag(string[] storage surveyTags, string[] memory tags) internal view returns (bool) {\r\n        for (uint i = 0; i < surveyTags.length; i++) {\r\n            for (uint j = 0; j < tags.length; j++) {\r\n                if (keccak256(bytes(surveyTags[i])) == keccak256(bytes(tags[j]))) {\r\n                    return true;\r\n                }\r\n            }\r\n        }\r\n        return false;\r\n    }\r\n\r\n    function trim(SurveySummary[] memory array, uint count) internal pure returns (SurveySummary[] memory) {\r\n        SurveySummary[] memory trimmedArray = new SurveySummary[](count);\r\n        for (uint i = 0; i < count; i++) {\r\n            trimmedArray[i] = array[i];\r\n        }\r\n        return trimmedArray;\r\n    }\r\n\r\n    function getResults(uint _surveyId) public view returns (string[] memory, uint[] memory) {\r\n        require(_surveyId < surveyCount, \"Invalid surveyId\");\r\n\r\n        Survey storage survey = surveys[_surveyId];\r\n\r\n        return (survey.options, survey.voteCounts);\r\n    }\r\n\r\n    function getSurveyById(uint _surveyId) public view returns (\r\n        uint,\r\n        string memory,\r\n        string memory,\r\n        bool,\r\n        string[] memory,\r\n        string[] memory,\r\n        uint[] memory,\r\n        address,\r\n        string memory,\r\n        bool,\r\n        uint)\r\n    {\r\n        require(_surveyId < surveyCount, \"Invalid surveyId\");\r\n\r\n        Survey storage survey = surveys[_surveyId];\r\n\r\n        return (\r\n        survey.id,\r\n        survey.question,\r\n        survey.description,\r\n        survey.isActive,\r\n        survey.options,\r\n        survey.tags,\r\n        survey.voteCounts,\r\n        survey.creator,\r\n        survey.imgURL,\r\n        survey.hasVoted[msg.sender],\r\n        survey.selectedOption[msg.sender]\r\n        );\r\n    }\r\n\r\n    function deleteAllSurveys() public {\r\n        require(msg.sender == owner, \"Only the contract owner can delete all surveys\");\r\n\r\n        for (uint i = 0; i < surveyCount; i++) {\r\n            delete surveys[i];\r\n        }\r\n\r\n        surveyCount = 0;\r\n        nextSurveyId = 0;\r\n\r\n        emit SurveysDeleted();\r\n    }\r\n}",
  "sourcePath": "C:\\Projects\\WEB3-DecentralizedVotingRegistry\\web3-decentralized-voting-registry-v2\\contracts\\contracts\\contacts.sol",
  "compiler": {
    "name": "solc",
    "version": "0.8.0+commit.c7dfd78e.Emscripten.clang"
  },
  "schemaVersion": "3.4.16",
  "updatedAt": "2023-10-11T06:45:10.902Z",
  "networkType": "ethereum",
  "devdoc": {
    "kind": "dev",
    "methods": {},
    "version": 1
  },
  "userdoc": {
    "kind": "user",
    "methods": {},
    "version": 1
  }
}