{
  "contractName": "Contacts",
  "abi": [
    {
      "inputs": [],
      "stateMutability": "nonpayable",
      "type": "constructor"
    },
    {
      "anonymous": false,
      "inputs": [
        {
          "indexed": false,
          "internalType": "uint256",
          "name": "surveyId",
          "type": "uint256"
        },
        {
          "indexed": false,
          "internalType": "string",
          "name": "question",
          "type": "string"
        },
        {
          "indexed": false,
          "internalType": "string[10]",
          "name": "options",
          "type": "string[10]"
        }
      ],
      "name": "SurveyCreated",
      "type": "event"
    },
    {
      "anonymous": false,
      "inputs": [
        {
          "indexed": false,
          "internalType": "uint256",
          "name": "surveyId",
          "type": "uint256"
        }
      ],
      "name": "SurveyDeleted",
      "type": "event"
    },
    {
      "anonymous": false,
      "inputs": [],
      "name": "SurveysDeleted",
      "type": "event"
    },
    {
      "anonymous": false,
      "inputs": [
        {
          "indexed": false,
          "internalType": "uint256",
          "name": "surveyId",
          "type": "uint256"
        },
        {
          "indexed": false,
          "internalType": "string",
          "name": "option",
          "type": "string"
        },
        {
          "indexed": false,
          "internalType": "uint256",
          "name": "voteCount",
          "type": "uint256"
        }
      ],
      "name": "VoteCasted",
      "type": "event"
    },
    {
      "inputs": [],
      "name": "nextSurveyId",
      "outputs": [
        {
          "internalType": "uint256",
          "name": "",
          "type": "uint256"
        }
      ],
      "stateMutability": "view",
      "type": "function",
      "constant": true
    },
    {
      "inputs": [],
      "name": "owner",
      "outputs": [
        {
          "internalType": "address",
          "name": "",
          "type": "address"
        }
      ],
      "stateMutability": "view",
      "type": "function",
      "constant": true
    },
    {
      "inputs": [],
      "name": "surveyCount",
      "outputs": [
        {
          "internalType": "uint256",
          "name": "",
          "type": "uint256"
        }
      ],
      "stateMutability": "view",
      "type": "function",
      "constant": true
    },
    {
      "inputs": [
        {
          "internalType": "uint256",
          "name": "",
          "type": "uint256"
        }
      ],
      "name": "surveys",
      "outputs": [
        {
          "internalType": "uint256",
          "name": "id",
          "type": "uint256"
        },
        {
          "internalType": "string",
          "name": "question",
          "type": "string"
        },
        {
          "internalType": "address",
          "name": "creator",
          "type": "address"
        },
        {
          "internalType": "bool",
          "name": "isActive",
          "type": "bool"
        }
      ],
      "stateMutability": "view",
      "type": "function",
      "constant": true
    },
    {
      "inputs": [
        {
          "internalType": "string",
          "name": "",
          "type": "string"
        },
        {
          "internalType": "uint256",
          "name": "",
          "type": "uint256"
        }
      ],
      "name": "surveysByTag",
      "outputs": [
        {
          "internalType": "uint256",
          "name": "",
          "type": "uint256"
        }
      ],
      "stateMutability": "view",
      "type": "function",
      "constant": true
    },
    {
      "inputs": [
        {
          "internalType": "string",
          "name": "_question",
          "type": "string"
        },
        {
          "internalType": "string[10]",
          "name": "_options",
          "type": "string[10]"
        },
        {
          "internalType": "string[]",
          "name": "_tags",
          "type": "string[]"
        }
      ],
      "name": "createSurvey",
      "outputs": [],
      "stateMutability": "nonpayable",
      "type": "function"
    },
    {
      "inputs": [
        {
          "internalType": "uint256",
          "name": "_surveyId",
          "type": "uint256"
        }
      ],
      "name": "deleteSurvey",
      "outputs": [],
      "stateMutability": "nonpayable",
      "type": "function"
    },
    {
      "inputs": [
        {
          "internalType": "uint256",
          "name": "_surveyId",
          "type": "uint256"
        },
        {
          "internalType": "string",
          "name": "_option",
          "type": "string"
        }
      ],
      "name": "vote",
      "outputs": [],
      "stateMutability": "nonpayable",
      "type": "function"
    },
    {
      "inputs": [
        {
          "internalType": "uint256",
          "name": "limit",
          "type": "uint256"
        },
        {
          "internalType": "uint256",
          "name": "page",
          "type": "uint256"
        },
        {
          "internalType": "string[]",
          "name": "tags",
          "type": "string[]"
        }
      ],
      "name": "getSurveys",
      "outputs": [
        {
          "components": [
            {
              "internalType": "uint256",
              "name": "id",
              "type": "uint256"
            },
            {
              "internalType": "string",
              "name": "question",
              "type": "string"
            },
            {
              "internalType": "string[10]",
              "name": "options",
              "type": "string[10]"
            },
            {
              "internalType": "uint256[10]",
              "name": "voteCounts",
              "type": "uint256[10]"
            },
            {
              "internalType": "string[]",
              "name": "tags",
              "type": "string[]"
            },
            {
              "internalType": "bool",
              "name": "isActive",
              "type": "bool"
            }
          ],
          "internalType": "struct Contacts.SurveySummary[]",
          "name": "",
          "type": "tuple[]"
        }
      ],
      "stateMutability": "view",
      "type": "function",
      "constant": true
    },
    {
      "inputs": [
        {
          "internalType": "uint256",
          "name": "_surveyId",
          "type": "uint256"
        }
      ],
      "name": "getResults",
      "outputs": [
        {
          "internalType": "string[10]",
          "name": "",
          "type": "string[10]"
        },
        {
          "internalType": "uint256[10]",
          "name": "",
          "type": "uint256[10]"
        }
      ],
      "stateMutability": "view",
      "type": "function",
      "constant": true
    },
    {
      "inputs": [
        {
          "internalType": "uint256",
          "name": "_surveyId",
          "type": "uint256"
        }
      ],
      "name": "getSurveyById",
      "outputs": [
        {
          "internalType": "string",
          "name": "",
          "type": "string"
        },
        {
          "internalType": "string[10]",
          "name": "",
          "type": "string[10]"
        },
        {
          "internalType": "uint256[10]",
          "name": "",
          "type": "uint256[10]"
        },
        {
          "internalType": "address",
          "name": "",
          "type": "address"
        },
        {
          "internalType": "bool",
          "name": "",
          "type": "bool"
        }
      ],
      "stateMutability": "view",
      "type": "function",
      "constant": true
    },
    {
      "inputs": [],
      "name": "deleteAllSurveys",
      "outputs": [],
      "stateMutability": "nonpayable",
      "type": "function"
    }
  ],
  "bytecode": "0x608060405234801561001057600080fd5b50336000806101000a81548173ffffffffffffffffffffffffffffffffffffffff021916908373ffffffffffffffffffffffffffffffffffffffff160217905550612c0a806100606000396000f3fe608060405234801561001057600080fd5b50600436106100b45760003560e01c80638da5cb5b116100715780638da5cb5b146101b5578063c0ac4ae4146101d3578063cb39b22e14610207578063cff760f414610223578063e804f4c014610241578063ef3e6b2e1461025f576100b4565b806324108475146100b9578063567d4411146100d55780635c57fc321461010557806372d1a9901461012157806381a60c0d1461015157806386e68b9014610182575b600080fd5b6100d360048036038101906100ce9190611c39565b610269565b005b6100ef60048036038101906100ea9190611bbc565b610597565b6040516100fc91906126b5565b60405180910390f35b61011f600480360381019061011a9190611b25565b6105de565b005b61013b60048036038101906101369190611c8d565b610899565b604051610148919061250f565b60405180910390f35b61016b60048036038101906101669190611c10565b610a82565b6040516101799291906124de565b60405180910390f35b61019c60048036038101906101979190611c10565b610bff565b6040516101ac94939291906126d0565b60405180910390f35b6101bd610ce4565b6040516101ca91906124c3565b60405180910390f35b6101ed60048036038101906101e89190611c10565b610d08565b6040516101fe959493929190612531565b60405180910390f35b610221600480360381019061021c9190611c10565b610f5b565b005b61022b6110a0565b60405161023891906126b5565b60405180910390f35b6102496110a6565b60405161025691906126b5565b60405180910390f35b6102676110ac565b005b60035482106102ad576040517f08c379a00000000000000000000000000000000000000000000000000000000081526004016102a4906125b5565b60405180910390fd5b60008151116102f1576040517f08c379a00000000000000000000000000000000000000000000000000000000081526004016102e890612615565b60405180910390fd5b60006001600084815260200190815260200160002090508060170160149054906101000a900460ff16610359576040517f08c379a000000000000000000000000000000000000000000000000000000000815260040161035090612655565b60405180910390fd5b8060180160003373ffffffffffffffffffffffffffffffffffffffff1673ffffffffffffffffffffffffffffffffffffffff16815260200190815260200160002060009054906101000a900460ff16156103e8576040517f08c379a00000000000000000000000000000000000000000000000000000000081526004016103df906125d5565b60405180910390fd5b60005b600a8110156105375782805190602001208260020182600a8110610438577f4e487b7100000000000000000000000000000000000000000000000000000000600052603260045260246000fd5b016040516104469190612495565b604051809103902014156105245781600c0181600a8110610490577f4e487b7100000000000000000000000000000000000000000000000000000000600052603260045260246000fd5b0160008154809291906104a290612ad6565b91905055507fa63ca37190e619f865dc8e24d616d8d3c428554a172f39acf18ababcabcce0d5848484600c0184600a8110610506577f4e487b7100000000000000000000000000000000000000000000000000000000600052603260045260246000fd5b015460405161051793929190612761565b60405180910390a1610537565b808061052f90612ad6565b9150506103eb565b5060018160180160003373ffffffffffffffffffffffffffffffffffffffff1673ffffffffffffffffffffffffffffffffffffffff16815260200190815260200160002060006101000a81548160ff021916908315150217905550505050565b60028280516020810182018051848252602083016020850120818352809550505050505081815481106105c957600080fd5b90600052602060002001600091509150505481565b6000835111610622576040517f08c379a000000000000000000000000000000000000000000000000000000000815260040161061990612595565b60405180910390fd5b6000600a11610666576040517f08c379a000000000000000000000000000000000000000000000000000000000815260040161065d90612695565b60405180910390fd5b60006004600081548092919061067b90612ad6565b919050559050806001600083815260200190815260200160002060000181905550836001600083815260200190815260200160002060010190805190602001906106c6929190611716565b50826001600083815260200190815260200160002060020190600a6106ec92919061179c565b50336001600083815260200190815260200160002060170160006101000a81548173ffffffffffffffffffffffffffffffffffffffff021916908373ffffffffffffffffffffffffffffffffffffffff1602179055508160016000838152602001908152602001600020601601908051906020019061076c9291906117ef565b50600180600083815260200190815260200160002060170160146101000a81548160ff02191690831515021790555060005b825181101561083f5760028382815181106107e2577f4e487b7100000000000000000000000000000000000000000000000000000000600052603260045260246000fd5b60200260200101516040516107f791906124ac565b9081526020016040518091039020829080600181540180825580915050600190039060005260206000200160009091909190915055808061083790612ad6565b91505061079e565b507f021f911babf6ed8607fc7b8b35defa87d31414d4fe0535dff77ce8f80678ba8e8185856040516108739392919061271c565b60405180910390a16003600081548092919061088e90612ad6565b919050555050505050565b6060600084116108de576040517f08c379a00000000000000000000000000000000000000000000000000000000081526004016108d5906125f5565b60405180910390fd5b60008467ffffffffffffffff811115610920577f4e487b7100000000000000000000000000000000000000000000000000000000600052604160045260246000fd5b60405190808252806020026020018201604052801561095957816020015b61094661184f565b81526020019060019003908161093e5790505b5090506000808660018761096d91906129e6565b610977919061298c565b90505b6003548110801561098a57508682105b15610a6c576000855114806109ba57506109b96001600083815260200190815260200160002060160186611232565b5b80156109e657506001600082815260200190815260200160002060170160149054906101000a900460ff165b15610a5957610a0660016000838152602001908152602001600020611336565b838381518110610a3f577f4e487b7100000000000000000000000000000000000000000000000000000000600052603260045260246000fd5b60200260200101819052508180610a5590612ad6565b9250505b8080610a6490612ad6565b91505061097a565b610a7683836115e8565b93505050509392505050565b610a8a611893565b610a926118bb565b6003548310610ad6576040517f08c379a0000000000000000000000000000000000000000000000000000000008152600401610acd906125b5565b60405180910390fd5b60006001600085815260200190815260200160002090508060020181600c0181600a80602002604051908101604052809291906000905b82821015610bb0578382018054610b2390612aa4565b80601f0160208091040260200160405190810160405280929190818152602001828054610b4f90612aa4565b8015610b9c5780601f10610b7157610100808354040283529160200191610b9c565b820191906000526020600020905b815481529060010190602001808311610b7f57829003601f168201915b505050505081526020019060010190610b0d565b50505050915080600a806020026040519081016040528092919082600a8015610bee576020028201915b815481526020019060010190808311610bda575b505050505090509250925050915091565b6001602052806000526040600020600091509050806000015490806001018054610c2890612aa4565b80601f0160208091040260200160405190810160405280929190818152602001828054610c5490612aa4565b8015610ca15780601f10610c7657610100808354040283529160200191610ca1565b820191906000526020600020905b815481529060010190602001808311610c8457829003601f168201915b5050505050908060170160009054906101000a900473ffffffffffffffffffffffffffffffffffffffff16908060170160149054906101000a900460ff16905084565b60008054906101000a900473ffffffffffffffffffffffffffffffffffffffff1681565b6060610d12611893565b610d1a6118bb565b6000806003548610610d61576040517f08c379a0000000000000000000000000000000000000000000000000000000008152600401610d58906125b5565b60405180910390fd5b6000600160008881526020019081526020016000209050806001018160020182600c018360170160009054906101000a900473ffffffffffffffffffffffffffffffffffffffff168460170160149054906101000a900460ff16848054610dc790612aa4565b80601f0160208091040260200160405190810160405280929190818152602001828054610df390612aa4565b8015610e405780601f10610e1557610100808354040283529160200191610e40565b820191906000526020600020905b815481529060010190602001808311610e2357829003601f168201915b5050505050945083600a80602002604051908101604052809291906000905b82821015610f02578382018054610e7590612aa4565b80601f0160208091040260200160405190810160405280929190818152602001828054610ea190612aa4565b8015610eee5780601f10610ec357610100808354040283529160200191610eee565b820191906000526020600020905b815481529060010190602001808311610ed157829003601f168201915b505050505081526020019060010190610e5f565b50505050935082600a806020026040519081016040528092919082600a8015610f40576020028201915b815481526020019060010190808311610f2c575b50505050509250955095509550955095505091939590929450565b6003548110610f9f576040517f08c379a0000000000000000000000000000000000000000000000000000000008152600401610f96906125b5565b60405180910390fd5b60006001600083815260200190815260200160002090503373ffffffffffffffffffffffffffffffffffffffff168160170160009054906101000a900473ffffffffffffffffffffffffffffffffffffffff1673ffffffffffffffffffffffffffffffffffffffff1614611048576040517f08c379a000000000000000000000000000000000000000000000000000000000815260040161103f90612635565b60405180910390fd5b60008160170160146101000a81548160ff0219169083151502179055507f5f39875257ec69ec99add8797273757dec9c2eb36b3ef14fc782991d8e9fddc68260405161109491906126b5565b60405180910390a15050565b60045481565b60035481565b60008054906101000a900473ffffffffffffffffffffffffffffffffffffffff1673ffffffffffffffffffffffffffffffffffffffff163373ffffffffffffffffffffffffffffffffffffffff161461113a576040517f08c379a000000000000000000000000000000000000000000000000000000000815260040161113190612675565b60405180910390fd5b60005b6003548110156111f3576001600082815260200190815260200160002060008082016000905560018201600061117391906118de565b600282016000611183919061191e565b600c820160006111939190611931565b6016820160006111a39190611944565b6017820160006101000a81549073ffffffffffffffffffffffffffffffffffffffff02191690556017820160146101000a81549060ff0219169055505080806111eb90612ad6565b91505061113d565b50600060038190555060006004819055507f813da9a045d8a3726715e79b805d0677f4490fbc81903e968e362c0ae78bb0c860405160405180910390a1565b600080600090505b838054905081101561132a5760005b83518110156113165783818151811061128b577f4e487b7100000000000000000000000000000000000000000000000000000000600052603260045260246000fd5b6020026020010151805190602001208583815481106112d3577f4e487b7100000000000000000000000000000000000000000000000000000000600052603260045260246000fd5b906000526020600020016040516112ea9190612495565b6040518091039020141561130357600192505050611330565b808061130e90612ad6565b915050611249565b50808061132290612ad6565b91505061123a565b50600090505b92915050565b61133e61184f565b6040518060c001604052808360000154815260200183600101805461136290612aa4565b80601f016020809104026020016040519081016040528092919081815260200182805461138e90612aa4565b80156113db5780601f106113b0576101008083540402835291602001916113db565b820191906000526020600020905b8154815290600101906020018083116113be57829003601f168201915b5050505050815260200183600201600a80602002604051908101604052809291906000905b828210156114a357838201805461141690612aa4565b80601f016020809104026020016040519081016040528092919081815260200182805461144290612aa4565b801561148f5780601f106114645761010080835404028352916020019161148f565b820191906000526020600020905b81548152906001019060200180831161147257829003601f168201915b505050505081526020019060010190611400565b50505050815260200183600c01600a806020026040519081016040528092919082600a80156114e7576020028201915b8154815260200190600101908083116114d3575b5050505050815260200183601601805480602002602001604051908101604052809291908181526020016000905b828210156115c157838290600052602060002001805461153490612aa4565b80601f016020809104026020016040519081016040528092919081815260200182805461156090612aa4565b80156115ad5780601f10611582576101008083540402835291602001916115ad565b820191906000526020600020905b81548152906001019060200180831161159057829003601f168201915b505050505081526020019060010190611515565b5050505081526020018360170160149054906101000a900460ff1615158152509050919050565b606060008267ffffffffffffffff81111561162c577f4e487b7100000000000000000000000000000000000000000000000000000000600052604160045260246000fd5b60405190808252806020026020018201604052801561166557816020015b61165261184f565b81526020019060019003908161164a5790505b50905060005b8381101561170b578481815181106116ac577f4e487b7100000000000000000000000000000000000000000000000000000000600052603260045260246000fd5b60200260200101518282815181106116ed577f4e487b7100000000000000000000000000000000000000000000000000000000600052603260045260246000fd5b6020026020010181905250808061170390612ad6565b91505061166b565b508091505092915050565b82805461172290612aa4565b90600052602060002090601f016020900481019282611744576000855561178b565b82601f1061175d57805160ff191683800117855561178b565b8280016001018555821561178b579182015b8281111561178a57825182559160200191906001019061176f565b5b5090506117989190611965565b5090565b82600a81019282156117de579160200282015b828111156117dd5782518290805190602001906117cd929190611716565b50916020019190600101906117af565b5b5090506117eb9190611982565b5090565b82805482825590600052602060002090810192821561183e579160200282015b8281111561183d57825182908051906020019061182d929190611716565b509160200191906001019061180f565b5b50905061184b9190611982565b5090565b6040518060c001604052806000815260200160608152602001611870611893565b815260200161187d6118bb565b8152602001606081526020016000151581525090565b604051806101400160405280600a905b60608152602001906001900390816118a35790505090565b604051806101400160405280600a90602082028036833780820191505090505090565b5080546118ea90612aa4565b6000825580601f106118fc575061191b565b601f01602090049060005260206000209081019061191a9190611965565b5b50565b5080600a019061192e9190611982565b50565b5080600a01906119419190611965565b50565b50805460008255906000526020600020908101906119629190611982565b50565b5b8082111561197e576000816000905550600101611966565b5090565b5b808211156119a2576000818161199991906118de565b50600101611983565b5090565b60006119b96119b4846127d0565b61279f565b9050808260005b858110156119f057813585016119d68882611ae6565b8452602084019350602083019250506001810190506119c0565b5050509392505050565b6000611a0d611a08846127f6565b61279f565b9050808382526020820190508260005b85811015611a4d5781358501611a338882611ae6565b845260208401935060208301925050600181019050611a1d565b5050509392505050565b6000611a6a611a6584612822565b61279f565b905082815260208101848484011115611a8257600080fd5b611a8d848285612a62565b509392505050565b600082601f830112611aa657600080fd5b600a611ab38482856119a6565b91505092915050565b600082601f830112611acd57600080fd5b8135611add8482602086016119fa565b91505092915050565b600082601f830112611af757600080fd5b8135611b07848260208601611a57565b91505092915050565b600081359050611b1f81612bbd565b92915050565b600080600060608486031215611b3a57600080fd5b600084013567ffffffffffffffff811115611b5457600080fd5b611b6086828701611ae6565b935050602084013567ffffffffffffffff811115611b7d57600080fd5b611b8986828701611a95565b925050604084013567ffffffffffffffff811115611ba657600080fd5b611bb286828701611abc565b9150509250925092565b60008060408385031215611bcf57600080fd5b600083013567ffffffffffffffff811115611be957600080fd5b611bf585828601611ae6565b9250506020611c0685828601611b10565b9150509250929050565b600060208284031215611c2257600080fd5b6000611c3084828501611b10565b91505092915050565b60008060408385031215611c4c57600080fd5b6000611c5a85828601611b10565b925050602083013567ffffffffffffffff811115611c7757600080fd5b611c8385828601611ae6565b9150509250929050565b600080600060608486031215611ca257600080fd5b6000611cb086828701611b10565b9350506020611cc186828701611b10565b925050604084013567ffffffffffffffff811115611cde57600080fd5b611cea86828701611abc565b9150509250925092565b6000611d008383612062565b905092915050565b6000611d1483836123dd565b905092915050565b6000611d288383612477565b60208301905092915050565b611d3d81612a1a565b82525050565b6000611d4e8261289b565b611d588185612906565b935083602082028501611d6a85612852565b8060005b85811015611da65784840389528151611d878582611cf4565b9450611d92836128d2565b925060208a01995050600181019050611d6e565b50829750879550505050505092915050565b6000611dc38261289b565b611dcd8185612911565b935083602082028501611ddf85612852565b8060005b85811015611e1b5784840389528151611dfc8582611cf4565b9450611e07836128d2565b925060208a01995050600181019050611de3565b50829750879550505050505092915050565b6000611e38826128a6565b611e42818561291c565b935083602082028501611e548561285c565b8060005b85811015611e905784840389528151611e718582611cf4565b9450611e7c836128df565b925060208a01995050600181019050611e58565b50829750879550505050505092915050565b6000611ead826128b1565b611eb7818561292d565b935083602082028501611ec98561286c565b8060005b85811015611f055784840389528151611ee68582611d08565b9450611ef1836128ec565b925060208a01995050600181019050611ecd565b50829750879550505050505092915050565b611f20816128bc565b611f2a818461293e565b9250611f358261287c565b8060005b83811015611f66578151611f4d8782611d1c565b9650611f58836128f9565b925050600181019050611f39565b505050505050565b611f77816128bc565b611f818184612949565b9250611f8c8261287c565b8060005b83811015611fbd578151611fa48782611d1c565b9650611faf836128f9565b925050600181019050611f90565b505050505050565b611fce81612a2c565b82525050565b611fdd81612a2c565b82525050565b60008154611ff081612aa4565b611ffa8186612954565b94506001821660008114612015576001811461202657612059565b60ff19831686528186019350612059565b61202f85612886565b60005b8381101561205157815481890152600182019150602081019050612032565b838801955050505b50505092915050565b600061206d826128c7565b612077818561295f565b9350612087818560208601612a71565b61209081612bac565b840191505092915050565b60006120a6826128c7565b6120b08185612970565b93506120c0818560208601612a71565b6120c981612bac565b840191505092915050565b60006120df826128c7565b6120e98185612981565b93506120f9818560208601612a71565b80840191505092915050565b6000612112601a83612970565b91507f5175657374696f6e206d757374206e6f7420626520656d7074790000000000006000830152602082019050919050565b6000612152601083612970565b91507f496e76616c6964207375727665794964000000000000000000000000000000006000830152602082019050919050565b6000612192602583612970565b91507f596f75206861766520616c726561647920766f74656420696e2074686973207360008301527f75727665790000000000000000000000000000000000000000000000000000006020830152604082019050919050565b60006121f8601c83612970565b91507f4c696d6974206d7573742062652067726561746572207468616e2030000000006000830152602082019050919050565b6000612238601883612970565b91507f4f7074696f6e206d757374206e6f7420626520656d70747900000000000000006000830152602082019050919050565b6000612278602d83612970565b91507f4f6e6c7920746865207375727665792063726561746f722063616e2064656c6560008301527f74652074686520737572766579000000000000000000000000000000000000006020830152604082019050919050565b60006122de601883612970565b91507f54686520737572766579206973206e6f742061637469766500000000000000006000830152602082019050919050565b600061231e602e83612970565b91507f4f6e6c792074686520636f6e7472616374206f776e65722063616e2064656c6560008301527f746520616c6c20737572766579730000000000000000000000000000000000006020830152604082019050919050565b6000612384602483612970565b91507f537572766579206d7573742068617665206174206c65617374206f6e65206f7060008301527f74696f6e000000000000000000000000000000000000000000000000000000006020830152604082019050919050565b60006101e0830160008301516123f66000860182612477565b506020830151848203602086015261240e8282612062565b915050604083015184820360408601526124288282611d43565b915050606083015161243d6060860182611f17565b5060808301518482036101a08601526124568282611e2d565b91505060a083015161246c6101c0860182611fc5565b508091505092915050565b61248081612a58565b82525050565b61248f81612a58565b82525050565b60006124a18284611fe3565b915081905092915050565b60006124b882846120d4565b915081905092915050565b60006020820190506124d86000830184611d34565b92915050565b60006101608201905081810360008301526124f98185611db8565b90506125086020830184611f6e565b9392505050565b600060208201905081810360008301526125298184611ea2565b905092915050565b60006101c082019050818103600083015261254c818861209b565b905081810360208301526125608187611db8565b905061256f6040830186611f6e565b61257d610180830185611d34565b61258b6101a0830184611fd4565b9695505050505050565b600060208201905081810360008301526125ae81612105565b9050919050565b600060208201905081810360008301526125ce81612145565b9050919050565b600060208201905081810360008301526125ee81612185565b9050919050565b6000602082019050818103600083015261260e816121eb565b9050919050565b6000602082019050818103600083015261262e8161222b565b9050919050565b6000602082019050818103600083015261264e8161226b565b9050919050565b6000602082019050818103600083015261266e816122d1565b9050919050565b6000602082019050818103600083015261268e81612311565b9050919050565b600060208201905081810360008301526126ae81612377565b9050919050565b60006020820190506126ca6000830184612486565b92915050565b60006080820190506126e56000830187612486565b81810360208301526126f7818661209b565b90506127066040830185611d34565b6127136060830184611fd4565b95945050505050565b60006060820190506127316000830186612486565b8181036020830152612743818561209b565b905081810360408301526127578184611db8565b9050949350505050565b60006060820190506127766000830186612486565b8181036020830152612788818561209b565b90506127976040830184612486565b949350505050565b6000604051905081810181811067ffffffffffffffff821117156127c6576127c5612b7d565b5b8060405250919050565b600067ffffffffffffffff8211156127eb576127ea612b7d565b5b602082029050919050565b600067ffffffffffffffff82111561281157612810612b7d565b5b602082029050602081019050919050565b600067ffffffffffffffff82111561283d5761283c612b7d565b5b601f19601f8301169050602081019050919050565b6000819050919050565b6000819050602082019050919050565b6000819050602082019050919050565b6000819050919050565b60008190508160005260206000209050919050565b6000600a9050919050565b600081519050919050565b600081519050919050565b6000600a9050919050565b600081519050919050565b6000602082019050919050565b6000602082019050919050565b6000602082019050919050565b6000602082019050919050565b600081905092915050565b600081905092915050565b600082825260208201905092915050565b600082825260208201905092915050565b600081905092915050565b600081905092915050565b600081905092915050565b600082825260208201905092915050565b600082825260208201905092915050565b600081905092915050565b600061299782612a58565b91506129a283612a58565b9250817fffffffffffffffffffffffffffffffffffffffffffffffffffffffffffffffff04831182151516156129db576129da612b1f565b5b828202905092915050565b60006129f182612a58565b91506129fc83612a58565b925082821015612a0f57612a0e612b1f565b5b828203905092915050565b6000612a2582612a38565b9050919050565b60008115159050919050565b600073ffffffffffffffffffffffffffffffffffffffff82169050919050565b6000819050919050565b82818337600083830152505050565b60005b83811015612a8f578082015181840152602081019050612a74565b83811115612a9e576000848401525b50505050565b60006002820490506001821680612abc57607f821691505b60208210811415612ad057612acf612b4e565b5b50919050565b6000612ae182612a58565b91507fffffffffffffffffffffffffffffffffffffffffffffffffffffffffffffffff821415612b1457612b13612b1f565b5b600182019050919050565b7f4e487b7100000000000000000000000000000000000000000000000000000000600052601160045260246000fd5b7f4e487b7100000000000000000000000000000000000000000000000000000000600052602260045260246000fd5b7f4e487b7100000000000000000000000000000000000000000000000000000000600052604160045260246000fd5b6000601f19601f8301169050919050565b612bc681612a58565b8114612bd157600080fd5b5056fea26469706673582212200ed2b1f10f695a854d196531364a3da0e689f785c9052aa074d00d282506a91264736f6c63430008000033",
  "immutableReferences": {},
  "source": "pragma solidity ^0.8.0;\r\n\r\ncontract Contacts {\r\n    address public owner;\r\n\r\n    struct Survey {\r\n        uint id;\r\n        string question;\r\n        string[10] options;\r\n        uint[10] voteCounts;\r\n        string[] tags;\r\n        address creator;\r\n        bool isActive;\r\n        mapping(address => bool) hasVoted;\r\n    }\r\n\r\n    struct SurveySummary {\r\n        uint id;\r\n        string question;\r\n        string[10] options;\r\n        uint[10] voteCounts;\r\n        string[] tags;\r\n        bool isActive;  // We add property isActive\r\n    }\r\n\r\n    mapping(uint => Survey) public surveys;\r\n    mapping(string => uint[]) public surveysByTag;\r\n    uint public surveyCount;\r\n    uint public nextSurveyId;\r\n\r\n    event SurveyCreated(uint surveyId, string question, string[10] options);\r\n    event SurveyDeleted(uint surveyId);\r\n    event VoteCasted(uint surveyId, string option, uint voteCount);\r\n    event SurveysDeleted();\r\n\r\n    constructor() {\r\n        owner = msg.sender;\r\n    }\r\n\r\n    function createSurvey(string memory _question, string[10] memory _options, string[] memory _tags) public {\r\n        require(bytes(_question).length > 0, \"Question must not be empty\");\r\n        require(_options.length > 0, \"Survey must have at least one option\");\r\n\r\n        uint surveyId = nextSurveyId++;\r\n        surveys[surveyId].id = surveyId;\r\n        surveys[surveyId].question = _question;\r\n        surveys[surveyId].options = _options;\r\n        surveys[surveyId].creator = msg.sender;\r\n        surveys[surveyId].tags = _tags;\r\n        surveys[surveyId].isActive = true;\r\n\r\n        for (uint i = 0; i < _tags.length; i++) {\r\n            surveysByTag[_tags[i]].push(surveyId);\r\n        }\r\n\r\n        emit SurveyCreated(surveyId, _question, _options);\r\n\r\n        surveyCount++;\r\n    }\r\n\r\n    function deleteSurvey(uint _surveyId) public {\r\n        require(_surveyId < surveyCount, \"Invalid surveyId\");\r\n\r\n        Survey storage survey = surveys[_surveyId];\r\n\r\n        require(survey.creator == msg.sender, \"Only the survey creator can delete the survey\");\r\n\r\n        survey.isActive = false;\r\n\r\n        emit SurveyDeleted(_surveyId);\r\n    }\r\n\r\n    function vote(uint _surveyId, string memory _option) public {\r\n        require(_surveyId < surveyCount, \"Invalid surveyId\");\r\n        require(bytes(_option).length > 0, \"Option must not be empty\");\r\n\r\n        Survey storage survey = surveys[_surveyId];\r\n\r\n        require(survey.isActive, \"The survey is not active\");\r\n        require(!survey.hasVoted[msg.sender], \"You have already voted in this survey\");\r\n\r\n        for (uint i = 0; i < survey.options.length; i++) {\r\n            if (keccak256(bytes(survey.options[i])) == keccak256(bytes(_option))) {\r\n                survey.voteCounts[i]++;\r\n                emit VoteCasted(_surveyId, _option, survey.voteCounts[i]);\r\n                break;\r\n            }\r\n        }\r\n\r\n        survey.hasVoted[msg.sender] = true;\r\n    }\r\n\r\n    function getSurveys(uint limit, uint page, string[] memory tags) public view returns (SurveySummary[] memory) {\r\n        require(limit > 0, \"Limit must be greater than 0\");\r\n\r\n        SurveySummary[] memory allSurveys = new SurveySummary[](limit);\r\n        uint count = 0;\r\n        uint i = (page - 1) * limit;\r\n\r\n        while(i < surveyCount && count < limit){\r\n            if ((tags.length == 0 || containsAnyTag(surveys[i].tags, tags)) && surveys[i].isActive){\r\n                allSurveys[count] = toSummary(surveys[i]);\r\n                count++;\r\n            }\r\n            i++;\r\n        }\r\n\r\n        return trim(allSurveys, count);\r\n    }\r\n\r\n    function toSummary(Survey storage survey) internal view returns (SurveySummary memory) {\r\n        return SurveySummary({\r\n        id: survey.id,\r\n        question: survey.question,\r\n        options: survey.options,\r\n        voteCounts: survey.voteCounts,\r\n        tags: survey.tags,\r\n        isActive: survey.isActive\r\n        });\r\n    }\r\n\r\n    function containsAnyTag(string[] storage surveyTags, string[] memory tags) internal view returns (bool) {\r\n        for (uint i = 0; i < surveyTags.length; i++) {\r\n            for (uint j = 0; j < tags.length; j++) {\r\n                if (keccak256(bytes(surveyTags[i])) == keccak256(bytes(tags[j]))) {\r\n                    return true;\r\n                }\r\n            }\r\n        }\r\n        return false;\r\n    }\r\n\r\n    function trim(SurveySummary[] memory array, uint count) internal pure returns (SurveySummary[] memory) {\r\n        SurveySummary[] memory trimmedArray = new SurveySummary[](count);\r\n        for (uint i = 0; i < count; i++) {\r\n            trimmedArray[i] = array[i];\r\n        }\r\n        return trimmedArray;\r\n    }\r\n\r\n    function getResults(uint _surveyId) public view returns (string[10] memory, uint[10] memory) {\r\n        require(_surveyId < surveyCount, \"Invalid surveyId\");\r\n\r\n        Survey storage survey = surveys[_surveyId];\r\n\r\n        return (survey.options, survey.voteCounts);\r\n    }\r\n\r\n    function getSurveyById(uint _surveyId) public view returns (string memory, string[10] memory, uint[10] memory, address, bool) {\r\n        require(_surveyId < surveyCount, \"Invalid surveyId\");\r\n\r\n        Survey storage survey = surveys[_surveyId];\r\n\r\n        return (survey.question, survey.options, survey.voteCounts, survey.creator, survey.isActive);\r\n    }\r\n\r\n    function deleteAllSurveys() public {\r\n        require(msg.sender == owner, \"Only the contract owner can delete all surveys\");\r\n\r\n        for (uint i = 0; i < surveyCount; i++) {\r\n            delete surveys[i];\r\n        }\r\n\r\n        surveyCount = 0;\r\n        nextSurveyId = 0;\r\n\r\n        emit SurveysDeleted();\r\n    }\r\n}",
  "sourcePath": "C:\\Projects\\WEB3-DecentralizedVotingRegistry\\web3-decentralized-voting-registry-v2\\contracts\\contracts\\contacts.sol",
  "compiler": {
    "name": "solc",
    "version": "0.8.0+commit.c7dfd78e.Emscripten.clang"
  },
  "schemaVersion": "3.4.16",
  "updatedAt": "2023-10-06T01:27:58.152Z",
  "networkType": "ethereum",
  "devdoc": {
    "kind": "dev",
    "methods": {},
    "version": 1
  },
  "userdoc": {
    "kind": "user",
    "methods": {},
    "version": 1
  }
}